S01200004C6F72614472697665722E7372656318
S315080000000050002041090008DD080008E50800083E
S31508000010ED080008F5080008FD08000800000000C3
S3150800002000000000000000000000000005090008AC
S3150800003011090008000000001D0900082909000828
S31508000040890900088909000889090008890900083A
S315080000508909000889090008450700088909000870
S31508000060890900088909000889090008890900081A
S31508000070890900088909000889090008890900080A
S3150800008089090008890900088909000889090008FA
S3150800009089090008890900088909000889090008EA
S315080000A089090008890900088909000889090008DA
S315080000B089090008890900088909000889090008CA
S315080000C089090008890900088909000889090008BA
S315080000D089090008890900088909000889090008AA
S315080000E08909000889090008890900080000000034
S315080000F000000000000000000000000000000000F2
S3110800010000000000000000005FF808F195
S3150800010C10B5054C237833B9044B13B10448AFF337
S3150800011C00800123237010BD400000200000000061
S3150800012C542A000808B5034B1BB103490348AFF31F
S3150800013C008008BD0000000044000020542A000876
S3150800014C4FF0FF0C1CEAD0521EBF1CEAD15392EAA0
S3150800015C0C0F93EA0C0F6FD01A4480EA010C40027C
S3150800016C18BF5FEA41211ED04FF0006343EA5010D6
S3150800017C43EA5111A0FB01310CF00040B1F5000F18
S3150800018C3EBF490041EAD3715B0040EA010062F1C7
S3150800019C7F02FD2A1DD8B3F1004F40EBC25008BFB1
S315080001AC20F00100704790F0000F0CF0004C08BFCF
S315080001BC49024CEA502040EA51207F3AC2BFD2F19C
S315080001CCFF0340EAC250704740F400004FF00003AA
S315080001DC013A5DDC12F1190FDCBF00F000407047E4
S315080001ECC2F10002410021FA02F1C2F1200200FA22
S315080001FC02FC5FEA310040F1000053EA4C0308BFE9
S3150800020C20EADC70704792F0000F00F0004C02BF39
S3150800021C400010F4000F013AF9D040EA0C0093F0B4
S3150800022C000F01F0004C02BF490011F4000F013B0E
S3150800023CF9D041EA0C018FE70CEAD15392EA0C0F7C
S3150800024C18BF93EA0C0F0AD030F0004C18BF31F0E7
S3150800025C004CD8D180EA010000F00040704790F0BD
S3150800026C000F17BF90F0004F084691F0000F91F061
S3150800027C004F14D092EA0C0F01D142020FD193EA27
S3150800028C0C0F03D14B0218BF084608D180EA0100AF
S3150800029C00F0004040F0FE4040F40000704740F08B
S315080002ACFE4040F44000704780F0004002E000BF7A
S315080002BC81F0004142001FBF5FEA410392EA030F37
S315080002CC7FEA226C7FEA236C6AD04FEA1262D2EB81
S315080002DC1363C1BFD218414048404140B8BF5B4286
S315080002EC192B88BF704710F0004F40F4000020F01F
S315080002FC7F4018BF404211F0004F41F4000121F035
S3150800030C7F4118BF494292EA030F3FD0A2F101027E
S3150800031C41FA03FC10EB0C00C3F1200301FA03F1BC
S3150800032C00F0004302D5494260EB4000B0F5000FDF
S3150800033C13D3B0F1807F06D340084FEA310102F19E
S3150800034C0102FE2A51D2B1F1004F40EBC25008BF50
S3150800035C20F0010040EA03007047490040EB00001A
S3150800036C013A28BFB0F5000FEDD2B0FA80FCACF11B
S3150800037C080CB2EB0C0200FA0CF0AABF00EBC25048
S3150800038C52421843BCBFD0401843704792F0000F36
S3150800039C81F4000106BF80F400000132013BB5E789
S315080003AC4FEA41037FEA226C18BF7FEA236C21D0FF
S315080003BC92EA030F04D092F0000F08BF0846704764
S315080003CC90EA010F1CBF0020704712F07F4F04D132
S315080003DC400028BF40F00040704712F100723CBF45
S315080003EC00F50000704700F0004343F0FE4040F46F
S315080003FC000070477FEA226216BF08467FEA23632D
S3150800040C0146420206BF5FEA412390EA010F40F417
S3150800041C800070474FF0000304E000BF10F0004363
S3150800042C48BF40425FEA000C08BF704743F096434A
S3150800043C01464FF000001CE050EA010208BF704765
S3150800044C4FF000030AE000BF50EA010208BF7047EC
S3150800045C11F0004302D5404261EB41015FEA010C01
S3150800046C02BF84460146002043F0B64308BFA3F1F9
S3150800047C8053A3F50003BCFA8CF2083AA3EBC253DB
S3150800048C10DB01FA02FC634400FA02FCC2F12002FA
S3150800049CBCF1004F20FA02F243EB020008BF20F031
S315080004AC0100704702F1200201FA02FCC2F1200297
S315080004BC50EA4C0021FA02F243EB020008BF20EA8C
S315080004CCDC70704742000ED2B2F1FE4F0BD34FF0E0
S315080004DC9E03B3EB126209D44FEA002343F00043A0
S315080004EC23FA02F070474FF00000704712F1610FC3
S315080004FC01D1420202D14FF0FF3070474FF0000095
S3150800050C704700BF80B588B000AF07F11003002212
S3150800051C1A605A609A60DA60374B9B69364A43F020
S3150800052C10039361344B9B6903F01003FB60FB6863
S3150800053C314B9B69304A43F0040393612E4B9B69FC
S3150800054C03F00403BB60BB682B4B9B692A4A43F038
S3150800055C08039361284B9B6903F008037B607B684F
S3150800056C00224FF40051254800F0F8FC0022102117
S3150800057C234800F0F3FC00220221224800F0EEFC8E
S3150800058C4FF400533B6101237B610023BB610223BB
S3150800059CFB6107F110031946184800F05BFB1023A2
S315080005AC3B6101237B610023BB610223FB6107F1DD
S315080005BC10031946124800F04DFB01233B61124B00
S315080005CC7B610023BB6107F1100319460D4800F047
S315080005DC41FB02233B6101237B610223BB6102239E
S315080005ECFB6107F110031946064800F033FB00BF00
S315080005FC2037BD4680BD00BF0010024000100140E8
S3150800060C00080140000C01400000111080B500AF35
S3150800061C094B0A4A1A60084B01225A60064B40F6E7
S3150800062CFF729A60044800F0CAFC0346002B01D0FE
S3150800063C00F096F800BF80BD5C000020003000403A
S3150800064C80B500AF00F09CF900F034F8FFF75AFFBC
S3150800065C00F08CF8FFF7DAFF114801F076FE052159
S3150800066C0F4801F03AFF0F4B1968642332220C48E5
S3150800067C01F072FF642332220B49094801F0E3FFAB
S3150800068C094B1B78542B07D14FF40051074800F03F
S3150800069C7DFC054B00221A70054800F0D4FCE2E7F5
S315080006AC00000020300000206800002000100140E7
S315080006BC5C00002080B590B000AF07F11803282223
S315080006CC0021184602F093F93B1D00221A605A6065
S315080006DC9A60DA601A610A23BB610123BB62102394
S315080006ECFB6201233B6302237B630023BB634FF44A
S315080006FCC013FB6307F11803184600F0B3FC034656
S3150800070C002B01D000F02CF80F237B600223BB6072
S3150800071C0023FB6000233B6100237B613B1D012109
S3150800072C184600F021FF0346002B01D000F018F8FC
S3150800073C00BF4037BD4680BD80B500AF0A233222C4
S3150800074C0449054801F07FFF044B01225A6100BF9A
S3150800075C80BD00BF68000020000000200004014096
S3150800076C80B400AF72B600BF00BFFDE780B500AF1E
S3150800077C174B184A1A60164B4FF482725A60144B70
S3150800078C00229A60124B0022DA60114B00221A6181
S3150800079C0F4B00225A610E4B4FF400729A610C4BA8
S315080007AC0022DA610A4B00221A62094B00225A62AD
S315080007BC074B00229A62064B0A22DA62044801F0B9
S315080007CC2FF80346002B01D0FFF7CAFF00BF80BDE8
S315080007DC9C0000200030014080B588B000AF7860DE
S315080007EC07F1100300221A605A609A60DA607B6877
S315080007FC1B681B4A93422FD11A4B9B69194A43F41F
S3150800080C80539361174B9B6903F48053FB60FB6819
S3150800081C144B9B69134A43F004039361114B9B6970
S3150800082C03F00403BB60BB68A0233B6102237B6116
S3150800083C0323FB6107F1100319460B4800F00AFA6B
S3150800084C40233B6100237B610023BB6107F1100346
S3150800085C1946054800F0FEF900BF2037BD4680BD95
S3150800086C00300140001002400008014080B485B0F9
S3150800087C00AF154B9B69144A43F001039361124B65
S3150800088C9B6903F00103BB60BB680F4BDB690E4A1F
S3150800089C43F08053D3610C4BDB6903F080537B60C8
S315080008AC7B680A4B5B68FB60FB6823F0E063FB60C4
S315080008BCFB6843F00073FB60044AFB68536000BF97
S315080008CC1437BD4680BC704700100240000001403A
S315080008DC80B400AF00BFFDE780B400AF00BFFDE7F2
S315080008EC80B400AF00BFFDE780B400AF00BFFDE7E2
S315080008FC80B400AF00BFFDE780B400AF00BFBD46B3
S3150800090C80BC704780B400AF00BFBD4680BC704742
S3150800091C80B400AF00BFBD4680BC704780B500AF41
S3150800092C00F074F800BF80BD80B400AF00BFBD46B0
S3150800093C80BC7047FFF7F8FF0B480C490C4A00239C
S3150800094C02E0D458C4500433C4188C42F9D3094A6B
S3150800095C094C002301E013600432A242FBD302F0D7
S3150800096C4FF8FFF76DFE704700000020400000208E
S3150800097CC82A000840000020F8000020FEE7000006
S3150800098C80B500AF084B1B68074A43F01003136089
S3150800099C032000F02BF90F2000F008F8FFF766FF8C
S315080009AC0023184680BD00BF0020024080B582B0E7
S315080009BC00AF7860124B1A68124B1B7819464FF425
S315080009CC7A73B3FBF1F3B2FBF3F3184600F035F97F
S315080009DC0346002B01D001230EE07B680F2B0AD8A7
S315080009EC002279684FF0FF3000F00BF9064A7B6855
S315080009FC1360002300E0012318460837BD4680BD66
S31508000A0C340000203C0000203800002080B400AFE1
S31508000A1C054B1B781A46054B1B681344034A13608F
S31508000A2C00BFBD4680BC70473C000020F400002087
S31508000A3C80B400AF024B1B681846BD4680BC704795
S31508000A4CF400002080B584B000AF7860FFF7F0FFA3
S31508000A5CB8607B68FB60FB68B3F1FF3F05D00A4BB7
S31508000A6C1B781A46FB681344FB6000BFFFF7E0FFD0
S31508000A7C0246BB68D31AFA689A42F7D800BF00BF79
S31508000A8C1037BD4680BD00BF3C00002080B485B041
S31508000A9C00AF78607B6803F00703FB600C4BDB68E0
S31508000AACBB60BA684FF6FF031340BB60FB681A02BB
S31508000ABCBB68134343F0BF6343F40033BB60044A7B
S31508000ACCBB68D36000BF1437BD4680BC704700BFF7
S31508000ADC00ED00E080B400AF044BDB681B0A03F0A2
S31508000AEC07031846BD4680BC704700BF00ED00E002
S31508000AFC80B483B000AF03463960FB7197F90730B1
S31508000B0C002B0ADB3B68DAB20C4997F9073012015D
S31508000B1CD2B20B4483F800230AE03B68DAB20849E0
S31508000B2CFB7903F00F03043B1201D2B20B441A767D
S31508000B3C00BF0C37BD4680BC704700BF00E100E023
S31508000B4C00ED00E080B489B000AFF860B9607A6057
S31508000B5CFB6803F00703FB61FB69C3F10703042B6E
S31508000B6C28BF0423BB61FB690433062B02D9FB6936
S31508000B7C033B00E000237B614FF0FF32BB6902FAAE
S31508000B8C03F3DA43BB681A407B699A404FF0FF318E
S31508000B9C7B6901FA03F3D9437B680B401343184668
S31508000BAC2437BD4680BC704780B582B000AF7860EC
S31508000BBC7B68013BB3F1807F01D301230FE00A4A1E
S31508000BCC7B68013B53600F214FF0FF30FFF790FF16
S31508000BDC054B00229A60044B07221A60002318461C
S31508000BEC0837BD4680BD00BF10E000E080B582B076
S31508000BFC00AF78607868FFF749FF00BF0837BD4635
S31508000C0C80BD80B586B000AF0346B9607A60FB73C9
S31508000C1C00237B61FFF75EFF78617A68B9687869AB
S31508000C2CFFF790FF024697F90F3011461846FFF763
S31508000C3C5FFF00BF1837BD4680BD80B582B000AFD8
S31508000C4C78607868FFF7B0FF034618460837BD4644
S31508000C5C80BD000080B48BB000AF7860396000238B
S31508000C6C7B6200233B6269E101227B6A02FA03F389
S31508000C7CFB613B681B68FA691340BB61BA69FB697F
S31508000C8C9A4240F058813B685B689A4A93425ED018
S31508000C9C984A934275D8984A934258D0964A9342A2
S31508000CAC6FD8964A934252D0944A934269D8944A3A
S31508000CBC93424CD0924A934263D8924A934246D076
S31508000CCC904A93425DD8122B2AD8122B59D801A2D6
S31508000CDC52F823F05B0D0008350D0008470D000887
S31508000CEC890D00088F0D00088F0D00088F0D000860
S31508000CFC8F0D00088F0D00088F0D00088F0D00084A
S31508000D0C8F0D00088F0D00088F0D00088F0D000839
S31508000D1C8F0D00088F0D00083D0D0008510D0008B9
S31508000D2C794A934213D02CE03B68DB683B6229E096
S31508000D3C3B68DB6804333B6224E03B68DB680833BA
S31508000D4C3B621FE03B68DB680C333B621AE03B688E
S31508000D5C9B68002B02D104233B6213E03B689B681B
S31508000D6C012B05D108233B627B68FA691A6109E0F5
S31508000D7C08233B627B68FA695A6103E000233B62ED
S31508000D8C00E000BFBB69FF2B01D87B6801E07B68DC
S31508000D9C04337B61BB69FF2B02D87B6A9B0002E09C
S31508000DAC7B6A083B9B003B617B691A680F213B6990
S31508000DBC01FA03F3DB431A40396A3B6901FA03F378
S31508000DCC1A437B691A603B685B6803F08053002BF7
S31508000DDC00F0B1804D4B9B694C4A43F0010393617B
S31508000DEC4A4B9B6903F00103BB60BB68484A7B6AA4
S31508000DFC9B08023352F82330FB607B6A03F003032B
S31508000E0C9B000F2202FA03F3DB43FA681340FB60DC
S31508000E1C7B68404A934213D07B683F4A93420DD075
S31508000E2C7B683E4A934207D07B683D4A934201D180
S31508000E3C032306E0042304E0022302E0012300E076
S31508000E4C00237A6A02F0030292009340FA6813436D
S31508000E5CFB602F497B6A9B080233FA6841F823200A
S31508000E6C3B685B6803F48013002B06D02D4B9A68FD
S31508000E7C2C49BB6913438B6006E02A4B9A68BB69FD
S31508000E8CDB43284913408B603B685B6803F400130B
S31508000E9C002B06D0234BDA682249BB691343CB6077
S31508000EAC06E0204BDA68BB69DB431E491340CB606E
S31508000EBC3B685B6803F40033002B06D0194B5A6861
S31508000ECC1849BB6913434B6006E0164B5A68BB6955
S31508000EDCDB43144913404B603B685B6803F480336F
S31508000EEC002B21D00F4B1A680E49BB6913430B60B4
S31508000EFC21E000BF00003210000031100000221063
S31508000F0C0000211000001210000011100010024001
S31508000F1C0000014000080140000C0140001001408F
S31508000F2C00140140000401400B4B1A68BB69DB43F3
S31508000F3C094913400B607B6A01337B623B681A686C
S31508000F4C7B6A22FA03F3002B7FF48EAE00BF00BF38
S31508000F5C2C37BD4680BC70470004014080B483B072
S31508000F6C00AF78600B467B8013467B707B78002B32
S31508000F7C03D07A887B681A6103E07B881A047B683D
S31508000F8C1A6100BF0C37BD4680BC704780B485B06B
S31508000F9C00AF78600B467B807B68DB68FB607A88E1
S31508000FACFB6813401A04FB68D9437B880B401A4329
S31508000FBC7B681A6100BF1437BD4680BC704780B584
S31508000FCC84B000AF78607B68002B01D1012336E032
S31508000FDC7B681B684CF6CC421A607B681B6845F22A
S31508000FEC55521A607B681B687A6852685A607B6827
S31508000FFC1B687A6892689A60FFF71AFDF86011E028
S3150800100CFFF716FD0246FB68D31A41F23C329342AF
S3150800101C08D97B681B68DB6803F00303002B01D037
S3150800102C03230CE07B681B68DB6803F00303002BC7
S3150800103CE6D17B681B684AF6AA221A600023184672
S3150800104C1037BD4680BD80B483B000AF78607B682E
S3150800105C1B684AF6AA221A60002318460C37BD46A6
S3150800106C80BC704780B586B000AF78607B68002B73
S3150800107C01D1012372E27B681B6803F00103002B84
S3150800108C00F08780924B5B6803F00C03042B0CD0A2
S3150800109C8F4B5B6803F00C03082B12D18C4B5B68E7
S315080010AC03F48033B3F5803F0BD1894B1B6803F4EB
S315080010BC0033002B6CD07B685B68002B68D101234E
S315080010CC4CE27B685B68B3F5803F06D1804B1B68A6
S315080010DC7F4A43F4803313602EE07B685B68002BF1
S315080010EC0CD17B4B1B687A4A23F480331360784BFC
S315080010FC1B68774A23F4802313601DE07B685B68C2
S3150800110CB3F5A02F0CD1724B1B68714A43F480239C
S3150800111C13606F4B1B686E4A43F4803313600BE005
S3150800112C6B4B1B686A4A23F480331360684B1B6845
S3150800113C674A23F4802313607B685B68002B13D003
S3150800114CFFF776FC386108E0FFF772FC02463B694C
S3150800115CD31A642B01D9032300E25D4B1B6803F4F5
S3150800116C0033002BF0D014E0FFF762FC386108E07E
S3150800117CFFF75EFC02463B69D31A642B01D903239D
S3150800118CECE1534B1B6803F40033002BF0D100E061
S3150800119C00BF7B681B6803F00203002B63D04C4B23
S315080011AC5B6803F00C03002B0BD0494B5B6803F010
S315080011BC0C03082B1CD1464B5B6803F48033002BBD
S315080011CC16D1434B1B6803F00203002B05D07B6832
S315080011DC1B69012B01D00123C0E13D4B1B6823F091
S315080011ECF8027B685B69DB00394913430B603AE00C
S315080011FC7B681B69002B20D0364B01221A60FFF73F
S3150800120C17FC386108E0FFF713FC02463B69D31A52
S3150800121C022B01D90323A1E12D4B1B6803F0020312
S3150800122C002BF0D02A4B1B6823F0F8027B685B690D
S3150800123CDB00274913430B6015E0264B00221A6086
S3150800124CFFF7F6FB386108E0FFF7F2FB02463B694D
S3150800125CD31A022B01D9032380E11D4B1B6803F01B
S3150800126C0203002BF0D17B681B6803F00803002BE4
S3150800127C3AD07B689B69002B19D0174B01221A6050
S3150800128CFFF7D6FB386108E0FFF7D2FB02463B694D
S3150800129CD31A022B01D9032360E10D4B5B6A03F0C9
S315080012AC0203002BF0D0012000F09CFA1CE00A4B3C
S315080012BC00221A60FFF7BCFB38610FE0FFF7B8FB9A
S315080012CC02463B69D31A022B08D9032346E100BF11
S315080012DC001002400000424280044242924B5B6A74
S315080012EC03F00203002BE9D17B681B6803F00403A7
S315080012FC002B00F0A6800023FB758B4BDB6903F0F3
S3150800130C8053002B0DD1884BDB69874A43F08053F9
S3150800131CD361854BDB6903F08053BB60BB68012343
S3150800132CFB75824B1B6803F48073002B18D17F4B1B
S3150800133C1B687E4A43F480731360FFF779FB3861A8
S3150800134C08E0FFF775FB02463B69D31A642B01D9F3
S3150800135C032303E1754B1B6803F48073002BF0D051
S3150800136C7B68DB68012B06D16F4B1B6A6E4A43F010
S3150800137C010313622DE07B68DB68002B0CD16A4BEA
S3150800138C1B6A694A23F001031362674B1B6A664A98
S3150800139C23F0040313621CE07B68DB68052B0CD175
S315080013AC614B1B6A604A43F0040313625E4B1B6A6B
S315080013BC5D4A43F0010313620BE05B4B1B6A5A4A06
S315080013CC23F001031362584B1B6A574A23F0040394
S315080013DC13627B68DB68002B15D0FFF729FB386195
S315080013EC0AE0FFF725FB02463B69D31A41F288321D
S315080013FC934201D90323B1E04B4B1B6A03F002035A
S3150800140C002BEED014E0FFF713FB38610AE0FFF768
S3150800141C0FFB02463B69D31A41F28832934201D933
S3150800142C03239BE0404B1B6A03F00203002BEED10F
S3150800143CFB7D012B05D13C4BDB693B4A23F08053E2
S3150800144CD3617B68DB69002B00F08780364B5B68C1
S3150800145C03F00C03082B61D07B68DB69022B46D1A1
S3150800146C334B00221A60FFF7E3FA386108E0FFF7FE
S3150800147CDFFA02463B69D31A022B01D903236DE026
S3150800148C294B1B6803F00073002BF0D17B681B6A91
S3150800149CB3F5803F08D1244B5B6823F400327B6894
S315080014AC9B68214913434B601F4B5B6823F47412EA
S315080014BC7B68196A7B685B6A0B431B4913434B6051
S315080014CC1B4B01221A60FFF7B3FA386108E0FFF7E5
S315080014DCAFFA02463B69D31A022B01D903233DE026
S315080014EC114B1B6803F00073002BF0D035E0104B42
S315080014FC00221A60FFF79CFA386108E0FFF798FAA1
S3150800150C02463B69D31A022B01D9032326E0064B64
S3150800151C1B6803F00073002BF0D11EE07B68DB69B7
S3150800152C012B07D1012319E000100240007000407E
S3150800153C600042420B4B5B68FB60FB6803F480322D
S3150800154C7B681B6A9A4206D1FB6803F470127B68A7
S3150800155C5B6A9A4201D0012300E00023184618372B
S3150800156CBD4680BD0010024080B584B000AF7860DF
S3150800157C39607B68002B01D10123D0E06A4B1B68CC
S3150800158C03F007033A689A4210D9674B1B6823F095
S3150800159C070265493B6813430B60634B1B6803F0F2
S315080015AC07033A689A4201D00123B8E07B681B68A6
S315080015BC03F00203002B20D07B681B6803F004039E
S315080015CC002B05D0594B5B68584A43F4E0635360CB
S315080015DC7B681B6803F00803002B05D0534B5B682C
S315080015EC524A43F460535360504B5B6823F0F00245
S315080015FC7B689B684D4913434B607B681B6803F0FB
S3150800160C0103002B40D07B685B68012B07D1474B45
S3150800161C1B6803F40033002B15D101237FE07B688C
S3150800162C5B68022B07D1414B1B6803F00073002B38
S3150800163C09D1012373E03D4B1B6803F00203002B11
S3150800164C01D101236BE0394B5B6823F003027B68FD
S3150800165C5B68364913434B60FFF7EAF9F8600AE012
S3150800166CFFF7E6F90246FB68D31A41F28832934231
S3150800167C01D9032353E02D4B5B6803F00C027B68FE
S3150800168C5B689B009A42EBD1274B1B6803F0070358
S3150800169C3A689A4210D2244B1B6823F00702224957
S315080016AC3B6813430B60204B1B6803F007033A682F
S315080016BC9A4201D0012332E07B681B6803F00403CD
S315080016CC002B08D0194B5B6823F4E0627B68DB6857
S315080016DC164913434B607B681B6803F00803002B01
S315080016EC09D0124B5B6823F460527B681B69DB00DC
S315080016FC0E4913434B6000F021F802460B4B5B680E
S3150800170C1B0903F00F030A49CB5C22FA03F3094AB7
S3150800171C1360094B1B681846FFF748F9002318464F
S3150800172C1037BD4680BD00BF0020024000100240A5
S3150800173C9C2A0008340000203800002080B487B0AA
S3150800174C00AF0023FB600023BB6000237B610023F2
S3150800175C7B6000233B611E4B5B68FB60FB6803F0F8
S3150800176C0C03042B02D0082B03D027E0194B3B6142
S3150800177C27E0FB689B0C03F00F03174AD35C7B60CE
S3150800178CFB6803F48033002B10D0114B5B685B0CA1
S3150800179C03F00103114AD35CBB607B680D4A03FB5B
S315080017AC02F2BB68B2FBF3F37B6104E07B680C4A7C
S315080017BC02FB03F37B617B693B6102E0054B3B61F2
S315080017CC00BF3B6918461C37BD4680BC704700BF36
S315080017DC0010024000127A00AC2A0008BC2A000845
S315080017EC00093D0080B485B000AF78600A4B1B68D1
S315080017FC0A4AA2FB03235B0A7A6802FB03F3FB6023
S3150800180C00BFFB685A1EFA60002BF9D100BF00BF57
S3150800181C1437BD4680BC704734000020D34D621087
S3150800182C80B582B000AF78607B68002B01D10123AC
S3150800183C76E07B685B6A002B08D17B685B68B3F53E
S3150800184C827F09D07B680022DA6105E07B6800227A
S3150800185C1A617B6800225A617B6800229A627B684F
S3150800186C93F85130DBB2002B06D17B68002283F843
S3150800187C50207868FEF7B0FF7B68022283F8512067
S3150800188C7B681B681A687B681B6822F040021A6022
S3150800189C7B685B6803F482727B689B6803F4044379
S315080018AC1A437B68DB6803F400631A437B681B697D
S315080018BC03F002031A437B685B6903F001031A43BE
S315080018CC7B689B6903F400731A437B68DB6903F036
S315080018DC38031A437B681B6A03F0800342EA030148
S315080018EC7B689B6A03F400527B681B680A431A6080
S315080018FC7B689B691A0C7B681B6802F004025A60A9
S3150800190C7B681B68DA697B681B6822F40062DA61FB
S3150800191C7B6800225A657B68012283F851200023D4
S3150800192C18460837BD4680BD80B588B000AFF8604C
S3150800193CB9603B601346FB80FFF77AF8F861FB88C1
S3150800194C7B83FB6893F85130DBB2012B01D0022361
S3150800195C2AE1BB68002B02D0FB88002B01D101239E
S3150800196C22E1FB6893F85030012B01D102231BE1CD
S3150800197CFB68012283F85020FB68032283F8512068
S3150800198CFB6800225A65FB68BA681A63FB68FA8812
S3150800199C9A86FB68FA88DA86FB6800229A63FB68E3
S315080019AC00229A87FB680022DA87FB6800225A64B1
S315080019BCFB6800221A64FB689B68B3F5004F0FD1CD
S315080019CCFB681B681A68FB681B6822F040021A60E1
S315080019DCFB681B681A68FB681B6842F480421A602D
S315080019ECFB681B681B6803F04003402B07D0FB6899
S315080019FC1B681A68FB681B6842F040021A60FB6891
S31508001A0CDB68B3F5006F52D1FB685B68002B02D01C
S31508001A1C7B8B012B45D1FB681B6B1A88FB681B68F3
S31508001A2CDA60FB681B6B9A1CFB681A63FB68DB8E17
S31508001A3C9BB2013B9AB2FB68DA8632E0FB681B68FC
S31508001A4C9B6803F00203022B12D1FB681B6B1A88E6
S31508001A5CFB681B68DA60FB681B6B9A1CFB681A63CD
S31508001A6CFB68DB8E9BB2013B9AB2FB68DA8618E000
S31508001A7CFEF7DEFF0246FB69D31A3A689A4203D888
S31508001A8C3B68B3F1FF3F02D13B68002B09D1FB68D9
S31508001A9C012283F85120FB68002283F85020032387
S31508001AAC82E0FB68DB8E9BB2002BC7D153E0FB6848
S31508001ABC5B68002B02D07B8B012B47D1FB681A6B1A
S31508001ACCFB681B680C3312781A70FB681B6B5A1C64
S31508001ADCFB681A63FB68DB8E9BB2013B9AB2FB6808
S31508001AECDA8633E0FB681B689B6803F00203022B5B
S31508001AFC13D1FB681A6BFB681B680C3312781A70C7
S31508001B0CFB681B6B5A1CFB681A63FB68DB8E9BB263
S31508001B1C013B9AB2FB68DA8618E0FEF789FF0246A3
S31508001B2CFB69D31A3A689A4203D83B68B3F1FF3F6C
S31508001B3C02D13B68002B09D1FB68012283F851209E
S31508001B4CFB68002283F8502003232DE0FB68DB8E0C
S31508001B5C9BB2002BC6D1FA693968F86800F0C4FB49
S31508001B6C0346002B02D0FB6820225A65FB689B684B
S31508001B7C002B0AD100237B61FB681B68DB687B6141
S31508001B8CFB681B689B687B617B69FB68012283F891
S31508001B9C5120FB68002283F85020FB685B6D002BF4
S31508001BAC01D0012300E0002318462037BD4680BD2E
S31508001BBC80B588B002AFF860B9603B601346FB800D
S31508001BCCFB6893F85130DBB2012B01D0022304E1F8
S31508001BDCFB685B68B3F5827F12D1FB689B68002BA8
S31508001BEC0ED1FB68042283F85120FA883B680093CF
S31508001BFC1346BA68B968F86800F0F3F80346ECE0DF
S31508001C0CFEF716FF7861BB68002B02D0FB88002B09
S31508001C1C01D10123E1E0FB6893F85030012B01D187
S31508001C2C0223DAE0FB68012283F85020FB680422C1
S31508001C3C83F85120FB6800225A65FB68BA689A63D8
S31508001C4CFB68FA889A87FB68FA88DA87FB680022A9
S31508001C5C1A63FB6800229A86FB680022DA86FB6800
S31508001C6C00221A64FB6800225A64FB689B68B3F569
S31508001C7C004F0FD1FB681B681A68FB681B6822F0BB
S31508001C8C40021A60FB681B681A68FB681B6822F41A
S31508001C9C80421A60FB681B681B6803F04003402BE4
S31508001CAC07D0FB681B681A68FB681B6842F0400281
S31508001CBC1A60FB68DB68002B70D135E0FB681B6883
S31508001CCC9B6803F00103012B15D1FB681B6803F114
S31508001CDC0C02FB689B6B1278D2B21A70FB689B6B72
S31508001CEC5A1CFB689A63FB68DB8F9BB2013B9AB262
S31508001CFCFB68DA8718E0FEF79BFE02467B69D31A67
S31508001D0C3A689A4203D83B68B3F1FF3F02D13B6865
S31508001D1C002B09D1FB68012283F85120FB680022AD
S31508001D2C83F85020032358E0FB68DB8F9BB2002B0B
S31508001D3CC4D138E0FB681B689B6803F00103012BD0
S31508001D4C13D1FB681B68DA68FB689B6B92B21A8026
S31508001D5CFB689B6B9A1CFB689A63FB68DB8F9BB2D0
S31508001D6C013B9AB2FB68DA8718E0FEF761FE024679
S31508001D7C7B69D31A3A689A4203D83B68B3F1FF3F9A
S31508001D8C02D13B68002B09D1FB68012283F851204C
S31508001D9CFB68002283F8502003231EE0FB68DB8FC8
S31508001DAC9BB2002BC6D17A693968F86800F04AFAF2
S31508001DBC0346002B02D0FB6820225A65FB680122D9
S31508001DCC83F85120FB68002283F85020FB685B6D72
S31508001DDC002B01D0012300E0002318461837BD4616
S31508001DEC80BD80B58AB000AFF860B9607A607B8038
S31508001DFC01237B62FEF71CFE3862FB6893F85130B0
S31508001E0CFB77FB685B68BB617B88FB82FB7F012BDE
S31508001E1C0CD0BB69B3F5827F06D1FB689B68002B97
S31508001E2C02D1FB7F042B01D002237FE1BB68002B78
S31508001E3C05D07B68002B02D07B88002B01D10123AF
S31508001E4C74E1FB6893F85030012B01D102236DE144
S31508001E5CFB68012283F85020FB6893F85130DBB2FB
S31508001E6C042B03D0FB68052283F85120FB6800225B
S31508001E7C5A65FB687A689A63FB687A88DA87FB681E
S31508001E8C7A889A87FB68BA681A63FB687A88DA864E
S31508001E9CFB687A889A86FB6800221A64FB6800221B
S31508001EAC5A64FB681B681B6803F04003402B07D079
S31508001EBCFB681B681A68FB681B6842F040021A60CC
S31508001ECCFB68DB68B3F5006F7ED1FB685B68002B9B
S31508001EDC02D0FB8A012B6CD1FB681B6B1A88FB683A
S31508001EEC1B68DA60FB681B6B9A1CFB681A63FB6839
S31508001EFCDB8E9BB2013B9AB2FB68DA8659E0FB682B
S31508001F0C1B689B6803F00203022B1BD1FB68DB8E54
S31508001F1C9BB2002B16D07B6A012B13D1FB681B6B6B
S31508001F2C1A88FB681B68DA60FB681B6B9A1CFB68D3
S31508001F3C1A63FB68DB8E9BB2013B9AB2FB68DA86A6
S31508001F4C00237B62FB681B689B6803F00103012B6B
S31508001F5C19D1FB68DB8F9BB2002B14D0FB681B686E
S31508001F6CDA68FB689B6B92B21A80FB689B6B9A1CAF
S31508001F7CFB689A63FB68DB8F9BB2013B9AB2FB68E2
S31508001F8CDA8701237B62FEF753FD02463B6AD31AB6
S31508001F9C3A6B9A420DD83B6BB3F1FF3F09D0FB68FD
S31508001FAC012283F85120FB68002283F85020032372
S31508001FBCBCE0FB68DB8E9BB2002BA0D1FB68DB8FE9
S31508001FCC9BB2002B9BD182E0FB685B68002B02D08E
S31508001FDCFB8A012B71D1FB681A6BFB681B680C33E7
S31508001FEC12781A70FB681B6B5A1CFB681A63FB6821
S31508001FFCDB8E9BB2013B9AB2FB68DA865DE0FB6826
S3150800200C1B689B6803F00203022B1CD1FB68DB8E52
S3150800201C9BB2002B17D07B6A012B14D1FB681A6B69
S3150800202CFB681B680C3312781A70FB681B6B5A1CFE
S3150800203CFB681A63FB68DB8E9BB2013B9AB2FB68A2
S3150800204CDA8600237B62FB681B689B6803F0010336
S3150800205C012B19D1FB68DB8F9BB2002B14D0FB68C4
S3150800206C1B68DA68FB689B6BD2B21A70FB689B6BB1
S3150800207C5A1CFB689A63FB68DB8F9BB2013B9AB2CE
S3150800208CFB68DA8701237B62FEF7D2FC02463B6AC1
S3150800209CD31A3A6B9A4203D83B6BB3F1FF3F02D182
S315080020AC3B6B002B09D1FB68012283F85120FB6896
S315080020BC002283F85020032338E0FB68DB8E9BB2A2
S315080020CC002B9CD1FB68DB8F9BB2002B97D13A6A0D
S315080020DC396BF86800F008F90346002B08D0FB6842
S315080020EC20225A65FB68002283F8502001231DE044
S315080020FCFB689B68002B0AD100233B61FB681B68B5
S3150800210CDB683B61FB681B689B683B613B69FB684A
S3150800211C012283F85120FB68002283F85020FB68C3
S3150800212C5B6D002B01D0012300E0002318462837ED
S3150800213CBD4680BD80B588B000AFF860B9603B601D
S3150800214C1346FB71FEF774FC0246BB6A9B1A3A6887
S3150800215C1344FB61FEF76CFCB861394B1B685B01D9
S3150800216C1B0DFA6902FB03F37B6154E03B68B3F180
S3150800217CFF3F50D0FEF75CFC0246BB69D31AFA69DE
S3150800218C9A4202D9FB69002B3DD1FB681B685A6839
S3150800219CFB681B6822F0E0025A60FB685B68B3F5C3
S315080021AC827F11D1FB689B68B3F5004F04D0FB689E
S315080021BC9B68B3F5806F07D1FB681B681A68FB68C8
S315080021CC1B6822F040021A60FB689B6AB3F5005F35
S315080021DC0FD1FB681B681A68FB681B6822F400524F
S315080021EC1A60FB681B681A68FB681B6842F4005285
S315080021FC1A60FB68012283F85120FB68002283F8D9
S3150800220C5020032317E07B69002B01D10023FB61C7
S3150800221C7B69013B7B61FB681B689A68BB6813404A
S3150800222CBA689A420CBF01230023DBB21A46FB7923
S3150800223C9A429BD1002318462037BD4680BD00BF65
S3150800224C3400002080B586B002AFF860B9607A60B9
S3150800225CFB685B68B3F5827F11D1FB689B68B3F5A5
S3150800226C004F04D0FB689B68B3F5806F07D1FB68F9
S3150800227C1B681A68FB681B6822F040021A60FB6828
S3150800228C5B68B3F5827F17D1FB689B68B3F5806FE3
S3150800229C12D17B680093BB6800220121F868FFF70E
S315080022AC49FF0346002B1AD0FB685B6D43F02002EE
S315080022BCFB685A65032313E07B680093BB6800220E
S315080022CC8021F868FFF736FF0346002B07D0FB681A
S315080022DC5B6D43F02002FB685A65032300E000237C
S315080022EC18461037BD4680BD80B586B002AFF8607B
S315080022FCB9607A607B680093BB6801220221F86892
S3150800230CFFF718FF0346002B07D0FB685B6D43F0FD
S3150800231C2002FB685A65032313E07B680093BB68AD
S3150800232C00228021F868FFF705FF0346002B07D02B
S3150800233CFB685B6D43F02002FB685A65032300E0DB
S3150800234C002318461037BD4680BD80B584B000AF53
S3150800235C78600023FB730023BB737B6818697B6862
S3150800236C9B8900221946FEF7F9FD0220FEF76AFB47
S3150800237C7B6818697B689B8901221946FEF7EEFD76
S3150800238C1420FEF75FFB00220121786800F06BFA37
S3150800239C80220121786800F066FA7B6893F825306C
S315080023AC5BB21B015AB27B6893F826305BB25B00B2
S315080023BC5BB213435BB2DBB21A461D21786800F098
S315080023CC52FA7B6893F824305BB21B015BB243F07C
S315080023DC04035BB2DBB21A461E21786800F043FA96
S315080023EC7B6893F82530062B04D97B6893F8243040
S315080023FC0A2B02D90C23FB7301E00823FB73FB7B26
S3150800240C1A462621786800F02EFA786800F0A2F9A8
S3150800241C12223921786800F026FA00220D217868F4
S3150800242C00F021FA00220E21786800F01CFA00222E
S3150800243C0F21786800F017FA00237B7384233B730B
S3150800244C7B6893F82730022B0CD0022B0DDC002B63
S3150800245C02D0012B03D008E080237B7308E08C2381
S3150800246C7B7305E08F237B7302E08C237B7300BFA1
S3150800247C7B7B1A460921786800F0F5F93B7B1A46EE
S3150800248C4D21786800F0EFF97B681B7F012B05D18D
S3150800249CB7221121786800F0E6F904E00022112130
S315080024AC786800F0E0F9FF221221786800F0DBF971
S315080024BC01220121786800F0D6F9786800F07EF9D7
S315080024CC0346122B02D10023BB7301E00123BB7315
S315080024DCBB7B18461037BD4680BD80B584B000AFAF
S315080024EC78600B46FB700023BB730023FB7307F164
S315080024FC0E031A460121786800F072F9BB7B03F0CB
S3150800250C0702FB789A4222D081220121786800F0D2
S3150800251CAAF90520FEF796FAFB7863F07F03DBB27F
S3150800252C1A460121786800F09EF90520FEF78AFA0A
S3150800253C07F10E031A460121786800F051F9BB7BA6
S3150800254C03F00702FB789A4201D00123FB73FB7B4D
S3150800255C18461037BD4680BD80B586B000AFF8600A
S3150800256CB96011461A460B46FB801346BB800023FE
S3150800257CFB750023FB74BB88BB820121F868FFF747
S3150800258CACFF00220D21F86800F06DF900220E212F
S3150800259CF86800F068F9FB881A46B968F86800F01C
S315080025ACE6F9FB88DBB21A462221F86800F05BF9DB
S315080025BC0321F868FFF791FFFB681B7F002B29D1D5
S315080025CC09E007F113031A461221F86800F008F916
S315080025DC0120FEF737FAFB7C03F00803002B04D125
S315080025ECBB8A5A1EBA82012BEBD8BB8A002B01D1A7
S315080025FC0123FB75FF221221F86800F034F91DE05F
S3150800260C07F113031A461221F86800F0E9F80120BD
S3150800261CFEF718FAFB7C03F00803002B04D1BB8ADF
S3150800262C5A1EBA82012BEBD8BB8A002B01D1012387
S3150800263CFB75FF221221F86800F015F9FB7D184688
S3150800264C1837BD4680BD80B586B000AFF860B96056
S3150800265C11461A460B46FB801346BB800023FB75B6
S3150800266C0023FB740023BB7400237B74BB88BB82DA
S3150800267CFB681B7F002B43D10521F868FFF72DFF5C
S3150800268C09E007F113031A461221F86800F0A8F8B6
S3150800269C0120FEF7D7F9FB7C03F04003002B04D18D
S315080026ACBB8A5A1EBA82012BEBD8BB8A002B02D1E5
S315080026BC0123FB7548E007F112031A461021F86846
S315080026CC00F08EF8BB7C1A460D21F86800F0CBF8A2
S315080026DC07F111031A461321F86800F081F87B7C80
S315080026EC1A46B968F86800F002F900220F21F86852
S315080026FC00F0B9F8FF221221F86800F0B4F823E0CC
S3150800270C07F112031A461021F86800F069F8BB7C29
S3150800271C1A460D21F86800F0A6F807F111031A46B7
S3150800272C1321F86800F05CF87B7C1A46B968F868DF
S3150800273C00F0DDF800220F21F86800F094F8FF226B
S3150800274C1221F86800F08FF8FB7D18461837BD463D
S3150800275C80BD000080B584B000AF78600023FB73A1
S3150800276C7B681B6A1846FDF755FE03461249184640
S3150800277CFDF7E6FC03461846FDF7A4FE0346BB60C8
S3150800278CBB681B0CDBB21A460621786800F06BF89E
S3150800279CBB681B0ADBB21A460721786800F063F897
S315080027ACBB68DBB21A460821786800F05CF8FB7B3C
S315080027BC18461037BD4680BDBD37863C80B584B0FB
S315080027CC00AF78600023FB7307F10F031A4642210A
S315080027DC786800F005F8FB7B18461037BD4680BDB7
S315080027EC80B586B000AFF8600B467A60FB720023A2
S315080027FCBB750023FB75FB7A03F07F03DBB27B7595
S3150800280CFB689868FB689B8800221946FEF7A6FBAE
S3150800281CFB68186807F115010A230122FFF784F8EB
S3150800282C0346BB75BB7D002B0ED1FB6818680A23C3
S3150800283C01227968FFF7BCF90346BB75BB7D002BF3
S3150800284C04D00123FB7501E00123FB75FB6898682E
S3150800285CFB689B8801221946FEF780FBFB7D184610
S3150800286C1837BD4680BD80B584B000AF78600B467E
S3150800287CFB701346BB700023BB730023FB73FB78FA
S3150800288C63F07F03DBB27B737B6898687B689B88F5
S3150800289C00221946FEF762FB7B68186807F10D01E2
S315080028AC0A230122FFF740F80346BB73BB7B002BB8
S315080028BC0ED17B681868B91C0A230122FFF734F875
S315080028CC0346BB73BB7B002B04D00123FB7301E0CF
S315080028DC0123FB737B6898687B689B8801221946E1
S315080028ECFEF73CFBFB7B18461037BD4680BD80B512
S315080028FC86B000AFF860B9601346FB800023BB7541
S3150800290C0023FB7500237B75FB689868FB689B881E
S3150800291C00221946FEF722FBFB68186807F1150119
S3150800292C0A230122FFF700F80346BB75BB7D002B73
S3150800293C0ED1FB681868FA880A23B968FFF738F9C4
S3150800294C0346BB75BB7D002B04D00123FB7501E048
S3150800295C0123FB75FB689868FB689B88012219465E
S3150800296CFEF7FCFAFB7D18461837BD4680BD80B5C8
S3150800297C86B000AFF860B9601346FB800023BB75C0
S3150800298C0023FB7580237B75FB689868FB689B881E
S3150800299C00221946FEF7E2FAFB68186807F11501DA
S315080029AC0A230122FEF7C0FF0346BB75BB7D002B2D
S315080029BC0ED1FB681868FA880A23B968FEF7B4FFC3
S315080029CC0346BB75BB7D002B04D00123FB7501E0C8
S315080029DC0123FB75FB689868FB689B8801221946DE
S315080029ECFEF7BCFAFB7D18461837BD4680BD034674
S315080029FC0244934200D1704703F8011BF9E7000023
S31508002A0C70B500260C4D0D4C641BA410A64209D1BA
S31508002A1C00F01AF800260A4D0A4C641BA410A642AC
S31508002A2C05D170BD55F8043B98470136EEE755F8C5
S31508002A3C043B98470136F2E7C02A0008C02A00086A
S31508002A4CC02A0008C42A0008F8B500BFF8BC08BCA0
S31508002A5C9E467047F8B500BFF8BC08BC9E46704742
S31508002A6C54657374696E67207472616E736D6974DC
S31508002A7C20616E64207265636569766520666F727F
S31508002A8C206D6F64756C65204C6F526100000000F8
S31508002A9C00000000000000000102030406070809F4
S31508002AAC02030405060708090A0B0C0D0E0F101075
S30908002ABC0102000005
S30908002AC031010008CA
S30908002AC40D010008EA
S31508002AC89C000020100000000008014002000000D9
S31508002AD8000C014001000000000C01400000000045
S31508002AE8400ECF1907070102000000000000000089
S31508002AF86C2A000800127A00100000000100000085
S70508000941A8
